{
  "_format": "hh-sol-artifact-1",
  "contractName": "AlphaWhaleNFT",
  "sourceName": "contracts/AlphaWhaleNFT.sol",
  "abi": [
    {
      "inputs": [
        {
          "internalType": "address",
          "name": "_proxyRegistryAddress",
          "type": "address"
        }
      ],
      "stateMutability": "nonpayable",
      "type": "constructor"
    },
    {
      "anonymous": false,
      "inputs": [
        {
          "indexed": true,
          "internalType": "address",
          "name": "owner",
          "type": "address"
        },
        {
          "indexed": true,
          "internalType": "address",
          "name": "approved",
          "type": "address"
        },
        {
          "indexed": true,
          "internalType": "uint256",
          "name": "tokenId",
          "type": "uint256"
        }
      ],
      "name": "Approval",
      "type": "event"
    },
    {
      "anonymous": false,
      "inputs": [
        {
          "indexed": true,
          "internalType": "address",
          "name": "owner",
          "type": "address"
        },
        {
          "indexed": true,
          "internalType": "address",
          "name": "operator",
          "type": "address"
        },
        {
          "indexed": false,
          "internalType": "bool",
          "name": "approved",
          "type": "bool"
        }
      ],
      "name": "ApprovalForAll",
      "type": "event"
    },
    {
      "anonymous": false,
      "inputs": [
        {
          "indexed": true,
          "internalType": "address",
          "name": "previousOwner",
          "type": "address"
        },
        {
          "indexed": true,
          "internalType": "address",
          "name": "newOwner",
          "type": "address"
        }
      ],
      "name": "OwnershipTransferred",
      "type": "event"
    },
    {
      "anonymous": false,
      "inputs": [
        {
          "indexed": false,
          "internalType": "address",
          "name": "account",
          "type": "address"
        }
      ],
      "name": "Paused",
      "type": "event"
    },
    {
      "anonymous": false,
      "inputs": [
        {
          "indexed": true,
          "internalType": "address",
          "name": "from",
          "type": "address"
        },
        {
          "indexed": true,
          "internalType": "address",
          "name": "to",
          "type": "address"
        },
        {
          "indexed": true,
          "internalType": "uint256",
          "name": "tokenId",
          "type": "uint256"
        }
      ],
      "name": "Transfer",
      "type": "event"
    },
    {
      "anonymous": false,
      "inputs": [
        {
          "indexed": false,
          "internalType": "address",
          "name": "account",
          "type": "address"
        }
      ],
      "name": "Unpaused",
      "type": "event"
    },
    {
      "inputs": [],
      "name": "MAX_PER_AIRDROP_ADDRESS",
      "outputs": [
        {
          "internalType": "uint256",
          "name": "",
          "type": "uint256"
        }
      ],
      "stateMutability": "view",
      "type": "function"
    },
    {
      "inputs": [],
      "name": "MAX_PER_TX",
      "outputs": [
        {
          "internalType": "uint256",
          "name": "",
          "type": "uint256"
        }
      ],
      "stateMutability": "view",
      "type": "function"
    },
    {
      "inputs": [],
      "name": "MAX_PER_WHITELIST_ADDRESS",
      "outputs": [
        {
          "internalType": "uint256",
          "name": "",
          "type": "uint256"
        }
      ],
      "stateMutability": "view",
      "type": "function"
    },
    {
      "inputs": [],
      "name": "MAX_SUPPLY",
      "outputs": [
        {
          "internalType": "uint256",
          "name": "",
          "type": "uint256"
        }
      ],
      "stateMutability": "view",
      "type": "function"
    },
    {
      "inputs": [],
      "name": "airdropMerkleRoot",
      "outputs": [
        {
          "internalType": "bytes32",
          "name": "",
          "type": "bytes32"
        }
      ],
      "stateMutability": "view",
      "type": "function"
    },
    {
      "inputs": [
        {
          "internalType": "uint256",
          "name": "_numberOfTokenToMint",
          "type": "uint256"
        },
        {
          "internalType": "bytes32[]",
          "name": "_proof",
          "type": "bytes32[]"
        }
      ],
      "name": "airdropMint",
      "outputs": [],
      "stateMutability": "nonpayable",
      "type": "function"
    },
    {
      "inputs": [
        {
          "internalType": "address",
          "name": "",
          "type": "address"
        }
      ],
      "name": "airdropMinted",
      "outputs": [
        {
          "internalType": "uint256",
          "name": "",
          "type": "uint256"
        }
      ],
      "stateMutability": "view",
      "type": "function"
    },
    {
      "inputs": [],
      "name": "alphaWhaleFundFeePercent",
      "outputs": [
        {
          "internalType": "uint256",
          "name": "",
          "type": "uint256"
        }
      ],
      "stateMutability": "view",
      "type": "function"
    },
    {
      "inputs": [],
      "name": "alphaWhaleFundWallet",
      "outputs": [
        {
          "internalType": "address",
          "name": "",
          "type": "address"
        }
      ],
      "stateMutability": "view",
      "type": "function"
    },
    {
      "inputs": [
        {
          "internalType": "address",
          "name": "to",
          "type": "address"
        },
        {
          "internalType": "uint256",
          "name": "tokenId",
          "type": "uint256"
        }
      ],
      "name": "approve",
      "outputs": [],
      "stateMutability": "nonpayable",
      "type": "function"
    },
    {
      "inputs": [
        {
          "internalType": "address",
          "name": "owner",
          "type": "address"
        }
      ],
      "name": "balanceOf",
      "outputs": [
        {
          "internalType": "uint256",
          "name": "",
          "type": "uint256"
        }
      ],
      "stateMutability": "view",
      "type": "function"
    },
    {
      "inputs": [],
      "name": "baseURI",
      "outputs": [
        {
          "internalType": "string",
          "name": "",
          "type": "string"
        }
      ],
      "stateMutability": "view",
      "type": "function"
    },
    {
      "inputs": [],
      "name": "ceoFeePercent",
      "outputs": [
        {
          "internalType": "uint256",
          "name": "",
          "type": "uint256"
        }
      ],
      "stateMutability": "view",
      "type": "function"
    },
    {
      "inputs": [],
      "name": "ceoWallet",
      "outputs": [
        {
          "internalType": "address",
          "name": "",
          "type": "address"
        }
      ],
      "stateMutability": "view",
      "type": "function"
    },
    {
      "inputs": [],
      "name": "cooFeePercent",
      "outputs": [
        {
          "internalType": "uint256",
          "name": "",
          "type": "uint256"
        }
      ],
      "stateMutability": "view",
      "type": "function"
    },
    {
      "inputs": [],
      "name": "cooWallet",
      "outputs": [
        {
          "internalType": "address",
          "name": "",
          "type": "address"
        }
      ],
      "stateMutability": "view",
      "type": "function"
    },
    {
      "inputs": [],
      "name": "ctoFeePercent",
      "outputs": [
        {
          "internalType": "uint256",
          "name": "",
          "type": "uint256"
        }
      ],
      "stateMutability": "view",
      "type": "function"
    },
    {
      "inputs": [],
      "name": "ctoWallet",
      "outputs": [
        {
          "internalType": "address",
          "name": "",
          "type": "address"
        }
      ],
      "stateMutability": "view",
      "type": "function"
    },
    {
      "inputs": [
        {
          "internalType": "uint256",
          "name": "tokenId",
          "type": "uint256"
        }
      ],
      "name": "getApproved",
      "outputs": [
        {
          "internalType": "address",
          "name": "",
          "type": "address"
        }
      ],
      "stateMutability": "view",
      "type": "function"
    },
    {
      "inputs": [],
      "name": "isAirdropMintOpen",
      "outputs": [
        {
          "internalType": "bool",
          "name": "",
          "type": "bool"
        }
      ],
      "stateMutability": "view",
      "type": "function"
    },
    {
      "inputs": [
        {
          "internalType": "address",
          "name": "owner",
          "type": "address"
        },
        {
          "internalType": "address",
          "name": "operator",
          "type": "address"
        }
      ],
      "name": "isApprovedForAll",
      "outputs": [
        {
          "internalType": "bool",
          "name": "",
          "type": "bool"
        }
      ],
      "stateMutability": "view",
      "type": "function"
    },
    {
      "inputs": [],
      "name": "isPublicMintOpen",
      "outputs": [
        {
          "internalType": "bool",
          "name": "",
          "type": "bool"
        }
      ],
      "stateMutability": "view",
      "type": "function"
    },
    {
      "inputs": [],
      "name": "isWhitelistMintOpen",
      "outputs": [
        {
          "internalType": "bool",
          "name": "",
          "type": "bool"
        }
      ],
      "stateMutability": "view",
      "type": "function"
    },
    {
      "inputs": [],
      "name": "mintPriceInWei",
      "outputs": [
        {
          "internalType": "uint256",
          "name": "",
          "type": "uint256"
        }
      ],
      "stateMutability": "view",
      "type": "function"
    },
    {
      "inputs": [],
      "name": "name",
      "outputs": [
        {
          "internalType": "string",
          "name": "",
          "type": "string"
        }
      ],
      "stateMutability": "view",
      "type": "function"
    },
    {
      "inputs": [],
      "name": "owner",
      "outputs": [
        {
          "internalType": "address",
          "name": "",
          "type": "address"
        }
      ],
      "stateMutability": "view",
      "type": "function"
    },
    {
      "inputs": [
        {
          "internalType": "uint256",
          "name": "tokenId",
          "type": "uint256"
        }
      ],
      "name": "ownerOf",
      "outputs": [
        {
          "internalType": "address",
          "name": "",
          "type": "address"
        }
      ],
      "stateMutability": "view",
      "type": "function"
    },
    {
      "inputs": [],
      "name": "pause",
      "outputs": [],
      "stateMutability": "nonpayable",
      "type": "function"
    },
    {
      "inputs": [],
      "name": "paused",
      "outputs": [
        {
          "internalType": "bool",
          "name": "",
          "type": "bool"
        }
      ],
      "stateMutability": "view",
      "type": "function"
    },
    {
      "inputs": [],
      "name": "proxyRegistryAddress",
      "outputs": [
        {
          "internalType": "address",
          "name": "",
          "type": "address"
        }
      ],
      "stateMutability": "view",
      "type": "function"
    },
    {
      "inputs": [
        {
          "internalType": "uint256",
          "name": "count",
          "type": "uint256"
        }
      ],
      "name": "publicMint",
      "outputs": [],
      "stateMutability": "payable",
      "type": "function"
    },
    {
      "inputs": [],
      "name": "renounceOwnership",
      "outputs": [],
      "stateMutability": "nonpayable",
      "type": "function"
    },
    {
      "inputs": [
        {
          "internalType": "address",
          "name": "from",
          "type": "address"
        },
        {
          "internalType": "address",
          "name": "to",
          "type": "address"
        },
        {
          "internalType": "uint256",
          "name": "tokenId",
          "type": "uint256"
        }
      ],
      "name": "safeTransferFrom",
      "outputs": [],
      "stateMutability": "nonpayable",
      "type": "function"
    },
    {
      "inputs": [
        {
          "internalType": "address",
          "name": "from",
          "type": "address"
        },
        {
          "internalType": "address",
          "name": "to",
          "type": "address"
        },
        {
          "internalType": "uint256",
          "name": "tokenId",
          "type": "uint256"
        },
        {
          "internalType": "bytes",
          "name": "_data",
          "type": "bytes"
        }
      ],
      "name": "safeTransferFrom",
      "outputs": [],
      "stateMutability": "nonpayable",
      "type": "function"
    },
    {
      "inputs": [
        {
          "internalType": "bytes32",
          "name": "_airdropMerkleRoot",
          "type": "bytes32"
        }
      ],
      "name": "setAirdropMerkleRoot",
      "outputs": [],
      "stateMutability": "nonpayable",
      "type": "function"
    },
    {
      "inputs": [
        {
          "internalType": "address",
          "name": "operator",
          "type": "address"
        },
        {
          "internalType": "bool",
          "name": "approved",
          "type": "bool"
        }
      ],
      "name": "setApprovalForAll",
      "outputs": [],
      "stateMutability": "nonpayable",
      "type": "function"
    },
    {
      "inputs": [
        {
          "internalType": "string",
          "name": "_baseURI",
          "type": "string"
        }
      ],
      "name": "setBaseURI",
      "outputs": [],
      "stateMutability": "nonpayable",
      "type": "function"
    },
    {
      "inputs": [
        {
          "internalType": "uint256",
          "name": "_alphaWhaleFundFeePercent",
          "type": "uint256"
        },
        {
          "internalType": "uint256",
          "name": "_ceoFeePercent",
          "type": "uint256"
        },
        {
          "internalType": "uint256",
          "name": "_ctoFeePercent",
          "type": "uint256"
        },
        {
          "internalType": "uint256",
          "name": "_cooFeePercent",
          "type": "uint256"
        },
        {
          "internalType": "uint256",
          "name": "_totalFeeUnitPercent",
          "type": "uint256"
        }
      ],
      "name": "setFee",
      "outputs": [],
      "stateMutability": "nonpayable",
      "type": "function"
    },
    {
      "inputs": [
        {
          "internalType": "uint256",
          "name": "_airdopMintLimit",
          "type": "uint256"
        }
      ],
      "name": "setMaxMintPerAirdrop",
      "outputs": [],
      "stateMutability": "nonpayable",
      "type": "function"
    },
    {
      "inputs": [
        {
          "internalType": "uint256",
          "name": "_whitelistMintLimit",
          "type": "uint256"
        }
      ],
      "name": "setMaxMintPerWhitelist",
      "outputs": [],
      "stateMutability": "nonpayable",
      "type": "function"
    },
    {
      "inputs": [
        {
          "internalType": "uint256",
          "name": "_mintMaxPerTx",
          "type": "uint256"
        }
      ],
      "name": "setMaxPerTxMint",
      "outputs": [],
      "stateMutability": "nonpayable",
      "type": "function"
    },
    {
      "inputs": [
        {
          "internalType": "uint256",
          "name": "maxSupply",
          "type": "uint256"
        }
      ],
      "name": "setMaxSupply",
      "outputs": [],
      "stateMutability": "nonpayable",
      "type": "function"
    },
    {
      "inputs": [
        {
          "internalType": "uint256",
          "name": "_mintPriceInWei",
          "type": "uint256"
        }
      ],
      "name": "setMintPrice",
      "outputs": [],
      "stateMutability": "nonpayable",
      "type": "function"
    },
    {
      "inputs": [
        {
          "internalType": "address",
          "name": "_proxyRegistryAddress",
          "type": "address"
        }
      ],
      "name": "setProxyAddress",
      "outputs": [],
      "stateMutability": "nonpayable",
      "type": "function"
    },
    {
      "inputs": [
        {
          "internalType": "address",
          "name": "_alphaWhaleFundWallet",
          "type": "address"
        },
        {
          "internalType": "address",
          "name": "_ceoWallet",
          "type": "address"
        },
        {
          "internalType": "address",
          "name": "_ctoWallet",
          "type": "address"
        },
        {
          "internalType": "address",
          "name": "_cooWallet",
          "type": "address"
        }
      ],
      "name": "setWallet",
      "outputs": [],
      "stateMutability": "nonpayable",
      "type": "function"
    },
    {
      "inputs": [
        {
          "internalType": "bytes32",
          "name": "_whitelistMerkleRoot",
          "type": "bytes32"
        }
      ],
      "name": "setWhitelistMerkleRoot",
      "outputs": [],
      "stateMutability": "nonpayable",
      "type": "function"
    },
    {
      "inputs": [
        {
          "internalType": "bytes4",
          "name": "interfaceId",
          "type": "bytes4"
        }
      ],
      "name": "supportsInterface",
      "outputs": [
        {
          "internalType": "bool",
          "name": "",
          "type": "bool"
        }
      ],
      "stateMutability": "view",
      "type": "function"
    },
    {
      "inputs": [],
      "name": "symbol",
      "outputs": [
        {
          "internalType": "string",
          "name": "",
          "type": "string"
        }
      ],
      "stateMutability": "view",
      "type": "function"
    },
    {
      "inputs": [],
      "name": "toggleAirdopMintState",
      "outputs": [],
      "stateMutability": "nonpayable",
      "type": "function"
    },
    {
      "inputs": [],
      "name": "togglePublicMintState",
      "outputs": [],
      "stateMutability": "nonpayable",
      "type": "function"
    },
    {
      "inputs": [],
      "name": "toggleWhitelistMintState",
      "outputs": [],
      "stateMutability": "nonpayable",
      "type": "function"
    },
    {
      "inputs": [
        {
          "internalType": "uint256",
          "name": "index",
          "type": "uint256"
        }
      ],
      "name": "tokenByIndex",
      "outputs": [
        {
          "internalType": "uint256",
          "name": "",
          "type": "uint256"
        }
      ],
      "stateMutability": "view",
      "type": "function"
    },
    {
      "inputs": [
        {
          "internalType": "address",
          "name": "owner",
          "type": "address"
        },
        {
          "internalType": "uint256",
          "name": "index",
          "type": "uint256"
        }
      ],
      "name": "tokenOfOwnerByIndex",
      "outputs": [
        {
          "internalType": "uint256",
          "name": "tokenId",
          "type": "uint256"
        }
      ],
      "stateMutability": "view",
      "type": "function"
    },
    {
      "inputs": [
        {
          "internalType": "uint256",
          "name": "_tokenId",
          "type": "uint256"
        }
      ],
      "name": "tokenURI",
      "outputs": [
        {
          "internalType": "string",
          "name": "",
          "type": "string"
        }
      ],
      "stateMutability": "view",
      "type": "function"
    },
    {
      "inputs": [],
      "name": "totalFeeUnitPercent",
      "outputs": [
        {
          "internalType": "uint256",
          "name": "",
          "type": "uint256"
        }
      ],
      "stateMutability": "view",
      "type": "function"
    },
    {
      "inputs": [],
      "name": "totalSupply",
      "outputs": [
        {
          "internalType": "uint256",
          "name": "",
          "type": "uint256"
        }
      ],
      "stateMutability": "view",
      "type": "function"
    },
    {
      "inputs": [
        {
          "internalType": "address",
          "name": "from",
          "type": "address"
        },
        {
          "internalType": "address",
          "name": "to",
          "type": "address"
        },
        {
          "internalType": "uint256",
          "name": "tokenId",
          "type": "uint256"
        }
      ],
      "name": "transferFrom",
      "outputs": [],
      "stateMutability": "nonpayable",
      "type": "function"
    },
    {
      "inputs": [
        {
          "internalType": "address",
          "name": "newOwner",
          "type": "address"
        }
      ],
      "name": "transferOwnership",
      "outputs": [],
      "stateMutability": "nonpayable",
      "type": "function"
    },
    {
      "inputs": [],
      "name": "unpause",
      "outputs": [],
      "stateMutability": "nonpayable",
      "type": "function"
    },
    {
      "inputs": [],
      "name": "whitelistMerkleRoot",
      "outputs": [
        {
          "internalType": "bytes32",
          "name": "",
          "type": "bytes32"
        }
      ],
      "stateMutability": "view",
      "type": "function"
    },
    {
      "inputs": [
        {
          "internalType": "uint256",
          "name": "_numberOfTokenToMint",
          "type": "uint256"
        },
        {
          "internalType": "bytes32[]",
          "name": "_proof",
          "type": "bytes32[]"
        }
      ],
      "name": "whitelistMint",
      "outputs": [],
      "stateMutability": "payable",
      "type": "function"
    },
    {
      "inputs": [
        {
          "internalType": "address",
          "name": "",
          "type": "address"
        }
      ],
      "name": "whitelistMinted",
      "outputs": [
        {
          "internalType": "uint256",
          "name": "",
          "type": "uint256"
        }
      ],
      "stateMutability": "view",
      "type": "function"
    },
    {
      "inputs": [],
      "name": "withdraw",
      "outputs": [],
      "stateMutability": "nonpayable",
      "type": "function"
    }
  ],
  "bytecode": "0x608060405261138860085560036009556003600a556006600b556706f05b59d3b20000600c553480156200003257600080fd5b506040516200601e3803806200601e833981810160405281019062000058919062000310565b6040518060400160405280600d81526020017f416c7068615768616c654e4654000000000000000000000000000000000000008152506040518060400160405280600581526020017f41574e46540000000000000000000000000000000000000000000000000000008152508160009080519060200190620000dc92919062000249565b508060019080519060200190620000f592919062000249565b505050620001186200010c6200017b60201b60201c565b6200018360201b60201c565b6000600560146101000a81548160ff02191690831515021790555080600760006101000a81548173ffffffffffffffffffffffffffffffffffffffff021916908373ffffffffffffffffffffffffffffffffffffffff16021790555050620003fa565b600033905090565b6000600560009054906101000a900473ffffffffffffffffffffffffffffffffffffffff16905081600560006101000a81548173ffffffffffffffffffffffffffffffffffffffff021916908373ffffffffffffffffffffffffffffffffffffffff1602179055508173ffffffffffffffffffffffffffffffffffffffff168173ffffffffffffffffffffffffffffffffffffffff167f8be0079c531659141344cd1fd0a4f28419497f9722a3daafe3b4186f6b6457e060405160405180910390a35050565b828054620002579062000376565b90600052602060002090601f0160209004810192826200027b5760008555620002c7565b82601f106200029657805160ff1916838001178555620002c7565b82800160010185558215620002c7579182015b82811115620002c6578251825591602001919060010190620002a9565b5b509050620002d69190620002da565b5090565b5b80821115620002f5576000816000905550600101620002db565b5090565b6000815190506200030a81620003e0565b92915050565b600060208284031215620003295762000328620003db565b5b60006200033984828501620002f9565b91505092915050565b60006200034f8262000356565b9050919050565b600073ffffffffffffffffffffffffffffffffffffffff82169050919050565b600060028204905060018216806200038f57607f821691505b60208210811415620003a657620003a5620003ac565b5b50919050565b7f4e487b7100000000000000000000000000000000000000000000000000000000600052602260045260246000fd5b600080fd5b620003eb8162000342565b8114620003f757600080fd5b50565b615c14806200040a6000396000f3fe6080604052600436106103b75760003560e01c806370a08231116101f2578063aa98e0c61161010d578063d5b9c7d8116100a0578063f43a22dc1161006f578063f43a22dc14610d91578063f4a0a52814610dbc578063fb4bcd4f14610de5578063fe6a42f114610e0e576103b7565b8063d5b9c7d814610cd5578063e985e9c514610d00578063f2fde38b14610d3d578063f433036814610d66576103b7565b8063c87b56dd116100dc578063c87b56dd14610c3a578063cd10ba7714610c77578063cd7c032614610c8e578063d2cab05614610cb9576103b7565b8063aa98e0c614610ba6578063b88d4fde14610bd1578063bd32fb6614610bfa578063bdd97f3414610c23576103b7565b80639216728a11610185578063a22cb46511610154578063a22cb46514610afe578063a2e00d6314610b27578063a4435dfd14610b50578063a5ce30d214610b7b576103b7565b80639216728a14610a4257806395d89b4114610a6d57806398a8cffe14610a98578063a002aee214610ad5576103b7565b8063886333c9116101c1578063886333c9146109965780638ab438b7146109c15780638cbe7d13146109ec5780638da5cb5b14610a17576103b7565b806370a0823114610900578063715018a61461093d578063755efc0e146109545780638456cb591461097f576103b7565b806332cb6b0c116102e25780634efca9fe116102755780635c975abb116102445780635c975abb146108445780636352211e1461086f5780636c0360eb146108ac5780636f8b44b0146108d7576103b7565b80634efca9fe1461079c5780634f6ccce7146107b35780635359fd9c146107f057806355f804b31461081b576103b7565b80633f4ba83a116102b15780633f4ba83a1461070857806342842e0e1461071f57806345ac46581461074857806346a7dadc14610773576103b7565b806332cb6b0c14610672578063389cabee1461069d5780633ccfd60b146106c85780633e0d39a0146106df576103b7565b806318f52c481161035a57806323b872dd1161032957806323b872dd146105c55780632db11544146105ee5780632f745c591461060a5780632fc2e83814610647576103b7565b806318f52c481461050757806319ec4b4e146105325780631e241ce81461055d57806321a1042214610588576103b7565b8063081812fc11610396578063081812fc1461044d578063095ea7b31461048a57806310266687146104b357806318160ddd146104dc576103b7565b8062eb7013146103bc57806301ffc9a7146103e557806306fdde0314610422575b600080fd5b3480156103c857600080fd5b506103e360048036038101906103de919061439c565b610e37565b005b3480156103f157600080fd5b5061040c600480360381019061040791906142cc565b610ebd565b6040516104199190614ab6565b60405180910390f35b34801561042e57600080fd5b50610437610f37565b6040516104449190614aec565b60405180910390f35b34801561045957600080fd5b50610474600480360381019061046f919061439c565b610fc9565b6040516104819190614a4f565b60405180910390f35b34801561049657600080fd5b506104b160048036038101906104ac919061425f565b61104e565b005b3480156104bf57600080fd5b506104da60048036038101906104d591906143c9565b611166565b005b3480156104e857600080fd5b506104f161139a565b6040516104fe9190614eae565b60405180910390f35b34801561051357600080fd5b5061051c6113a7565b6040516105299190614ab6565b60405180910390f35b34801561053e57600080fd5b506105476113ba565b6040516105549190614ab6565b60405180910390f35b34801561056957600080fd5b506105726113cd565b60405161057f9190614eae565b60405180910390f35b34801561059457600080fd5b506105af60048036038101906105aa9190614075565b6113d3565b6040516105bc9190614eae565b60405180910390f35b3480156105d157600080fd5b506105ec60048036038101906105e79190614149565b6113eb565b005b6106086004803603810190610603919061439c565b61144b565b005b34801561061657600080fd5b50610631600480360381019061062c919061425f565b6115ca565b60405161063e9190614eae565b60405180910390f35b34801561065357600080fd5b5061065c6116d6565b6040516106699190614eae565b60405180910390f35b34801561067e57600080fd5b506106876116dc565b6040516106949190614eae565b60405180910390f35b3480156106a957600080fd5b506106b26116e2565b6040516106bf9190614a4f565b60405180910390f35b3480156106d457600080fd5b506106dd611708565b005b3480156106eb57600080fd5b506107066004803603810190610701919061439c565b6119db565b005b34801561071457600080fd5b5061071d611a61565b005b34801561072b57600080fd5b5061074660048036038101906107419190614149565b611ae7565b005b34801561075457600080fd5b5061075d611b07565b60405161076a9190614a4f565b60405180910390f35b34801561077f57600080fd5b5061079a60048036038101906107959190614075565b611b2d565b005b3480156107a857600080fd5b506107b1611bed565b005b3480156107bf57600080fd5b506107da60048036038101906107d5919061439c565b611c95565b6040516107e79190614eae565b60405180910390f35b3480156107fc57600080fd5b50610805611ce6565b6040516108129190614eae565b60405180910390f35b34801561082757600080fd5b50610842600480360381019061083d9190614353565b611cec565b005b34801561085057600080fd5b50610859611d82565b6040516108669190614ab6565b60405180910390f35b34801561087b57600080fd5b506108966004803603810190610891919061439c565b611d99565b6040516108a39190614a4f565b60405180910390f35b3480156108b857600080fd5b506108c1611e56565b6040516108ce9190614aec565b60405180910390f35b3480156108e357600080fd5b506108fe60048036038101906108f9919061439c565b611ee4565b005b34801561090c57600080fd5b5061092760048036038101906109229190614075565b611f6a565b6040516109349190614eae565b60405180910390f35b34801561094957600080fd5b50610952612086565b005b34801561096057600080fd5b5061096961210e565b6040516109769190614eae565b60405180910390f35b34801561098b57600080fd5b50610994612114565b005b3480156109a257600080fd5b506109ab61219a565b6040516109b89190614eae565b60405180910390f35b3480156109cd57600080fd5b506109d66121a0565b6040516109e39190614a4f565b60405180910390f35b3480156109f857600080fd5b50610a016121c6565b604051610a0e9190614eae565b60405180910390f35b348015610a2357600080fd5b50610a2c6121cc565b604051610a399190614a4f565b60405180910390f35b348015610a4e57600080fd5b50610a576121f6565b604051610a649190614a4f565b60405180910390f35b348015610a7957600080fd5b50610a8261221c565b604051610a8f9190614aec565b60405180910390f35b348015610aa457600080fd5b50610abf6004803603810190610aba9190614075565b6122ae565b604051610acc9190614eae565b60405180910390f35b348015610ae157600080fd5b50610afc6004803603810190610af7919061439c565b6122c6565b005b348015610b0a57600080fd5b50610b256004803603810190610b20919061421f565b61234c565b005b348015610b3357600080fd5b50610b4e6004803603810190610b499190614429565b6124cd565b005b348015610b5c57600080fd5b50610b65612573565b604051610b729190614ab6565b60405180910390f35b348015610b8757600080fd5b50610b90612586565b604051610b9d9190614ad1565b60405180910390f35b348015610bb257600080fd5b50610bbb61258c565b604051610bc89190614ad1565b60405180910390f35b348015610bdd57600080fd5b50610bf86004803603810190610bf3919061419c565b612592565b005b348015610c0657600080fd5b50610c216004803603810190610c1c919061429f565b6125f4565b005b348015610c2f57600080fd5b50610c3861267a565b005b348015610c4657600080fd5b50610c616004803603810190610c5c919061439c565b612722565b604051610c6e9190614aec565b60405180910390f35b348015610c8357600080fd5b50610c8c61279e565b005b348015610c9a57600080fd5b50610ca3612846565b604051610cb09190614a4f565b60405180910390f35b610cd36004803603810190610cce91906143c9565b61286c565b005b348015610ce157600080fd5b50610cea612a9f565b604051610cf79190614eae565b60405180910390f35b348015610d0c57600080fd5b50610d276004803603810190610d2291906140a2565b612aa5565b604051610d349190614ab6565b60405180910390f35b348015610d4957600080fd5b50610d646004803603810190610d5f9190614075565b612ba7565b005b348015610d7257600080fd5b50610d7b612c9f565b604051610d889190614eae565b60405180910390f35b348015610d9d57600080fd5b50610da6612ca5565b604051610db39190614eae565b60405180910390f35b348015610dc857600080fd5b50610de36004803603810190610dde919061439c565b612cab565b005b348015610df157600080fd5b50610e0c6004803603810190610e07919061429f565b612d31565b005b348015610e1a57600080fd5b50610e356004803603810190610e3091906140e2565b612db7565b005b610e3f612f3d565b73ffffffffffffffffffffffffffffffffffffffff16610e5d6121cc565b73ffffffffffffffffffffffffffffffffffffffff1614610eb3576040517f08c379a0000000000000000000000000000000000000000000000000000000008152600401610eaa90614dae565b60405180910390fd5b8060098190555050565b60007f780e9d63000000000000000000000000000000000000000000000000000000007bffffffffffffffffffffffffffffffffffffffffffffffffffffffff1916827bffffffffffffffffffffffffffffffffffffffffffffffffffffffff19161480610f305750610f2f82612f45565b5b9050919050565b606060008054610f469061518f565b80601f0160208091040260200160405190810160405280929190818152602001828054610f729061518f565b8015610fbf5780601f10610f9457610100808354040283529160200191610fbf565b820191906000526020600020905b815481529060010190602001808311610fa257829003601f168201915b5050505050905090565b6000610fd482613027565b611013576040517f08c379a000000000000000000000000000000000000000000000000000000000815260040161100a90614d8e565b60405180910390fd5b6003600083815260200190815260200160002060009054906101000a900473ffffffffffffffffffffffffffffffffffffffff169050919050565b600061105982611d99565b90508073ffffffffffffffffffffffffffffffffffffffff168373ffffffffffffffffffffffffffffffffffffffff1614156110ca576040517f08c379a00000000000000000000000000000000000000000000000000000000081526004016110c190614e0e565b60405180910390fd5b8073ffffffffffffffffffffffffffffffffffffffff166110e9612f3d565b73ffffffffffffffffffffffffffffffffffffffff161480611118575061111781611112612f3d565b612aa5565b5b611157576040517f08c379a000000000000000000000000000000000000000000000000000000000815260040161114e90614cae565b60405180910390fd5b61116183836130af565b505050565b601860019054906101000a900460ff166111b5576040517f08c379a00000000000000000000000000000000000000000000000000000000081526004016111ac90614bae565b60405180910390fd5b6000600280549050905060085484826111ce9190614fa8565b111561120f576040517f08c379a000000000000000000000000000000000000000000000000000000000815260040161120690614c6e565b60405180910390fd5b61122461121a612f3d565b6017548585613168565b611263576040517f08c379a000000000000000000000000000000000000000000000000000000000815260040161125a90614dee565b60405180910390fd5b600a5484601a6000611273612f3d565b73ffffffffffffffffffffffffffffffffffffffff1673ffffffffffffffffffffffffffffffffffffffff168152602001908152602001600020546112b89190614fa8565b11156112f9576040517f08c379a00000000000000000000000000000000000000000000000000000000081526004016112f090614e8e565b60405180910390fd5b83601a6000611306612f3d565b73ffffffffffffffffffffffffffffffffffffffff1673ffffffffffffffffffffffffffffffffffffffff168152602001908152602001600020600082825461134f9190614fa8565b925050819055506000600190505b8481116113935761138061136f612f3d565b828461137b9190614fa8565b6131eb565b808061138b906151f2565b91505061135d565b5050505050565b6000600280549050905090565b601860009054906101000a900460ff1681565b601860019054906101000a900460ff1681565b60155481565b601a6020528060005260406000206000915090505481565b6113fc6113f6612f3d565b82613209565b61143b576040517f08c379a000000000000000000000000000000000000000000000000000000000815260040161143290614e2e565b60405180910390fd5b6114468383836132e7565b505050565b601860029054906101000a900460ff1661149a576040517f08c379a000000000000000000000000000000000000000000000000000000000815260040161149190614b4e565b60405180910390fd5b6000600280549050905060085482826114b39190614fa8565b11156114f4576040517f08c379a00000000000000000000000000000000000000000000000000000000081526004016114eb90614c6e565b60405180910390fd5b600b54821115611539576040517f08c379a000000000000000000000000000000000000000000000000000000000815260040161153090614d2e565b60405180910390fd5b34600c5483611548919061502f565b14611588576040517f08c379a000000000000000000000000000000000000000000000000000000000815260040161157f90614e6e565b60405180910390fd5b6000600190505b8281116115c5576115b26115a1612f3d565b82846115ad9190614fa8565b6134a0565b80806115bd906151f2565b91505061158f565b505050565b60006115d583611f6a565b8210611616576040517f08c379a000000000000000000000000000000000000000000000000000000000815260040161160d90614b6e565b60405180910390fd5b6000805b6002805490508110156116cd576002818154811061163b5761163a61531d565b5b9060005260206000200160009054906101000a900473ffffffffffffffffffffffffffffffffffffffff1673ffffffffffffffffffffffffffffffffffffffff168573ffffffffffffffffffffffffffffffffffffffff1614156116ba57838214156116ab5780925050506116d0565b81806116b6906151f2565b9250505b80806116c5906151f2565b91505061161a565b50505b92915050565b600a5481565b60085481565b600e60009054906101000a900473ffffffffffffffffffffffffffffffffffffffff1681565b611710612f3d565b73ffffffffffffffffffffffffffffffffffffffff1661172e6121cc565b73ffffffffffffffffffffffffffffffffffffffff1614611784576040517f08c379a000000000000000000000000000000000000000000000000000000000815260040161177b90614dae565b60405180910390fd5b6000479050600081116117cc576040517f08c379a00000000000000000000000000000000000000000000000000000000081526004016117c390614d6e565b60405180910390fd5b600d60009054906101000a900473ffffffffffffffffffffffffffffffffffffffff1673ffffffffffffffffffffffffffffffffffffffff166108fc60155460115484611819919061502f565b6118239190614ffe565b9081150290604051600060405180830381858888f1935050505015801561184e573d6000803e3d6000fd5b50600e60009054906101000a900473ffffffffffffffffffffffffffffffffffffffff1673ffffffffffffffffffffffffffffffffffffffff166108fc6015546012548461189c919061502f565b6118a69190614ffe565b9081150290604051600060405180830381858888f193505050501580156118d1573d6000803e3d6000fd5b50600f60009054906101000a900473ffffffffffffffffffffffffffffffffffffffff1673ffffffffffffffffffffffffffffffffffffffff166108fc6015546013548461191f919061502f565b6119299190614ffe565b9081150290604051600060405180830381858888f19350505050158015611954573d6000803e3d6000fd5b50601060009054906101000a900473ffffffffffffffffffffffffffffffffffffffff1673ffffffffffffffffffffffffffffffffffffffff166108fc601554601454846119a2919061502f565b6119ac9190614ffe565b9081150290604051600060405180830381858888f193505050501580156119d7573d6000803e3d6000fd5b5050565b6119e3612f3d565b73ffffffffffffffffffffffffffffffffffffffff16611a016121cc565b73ffffffffffffffffffffffffffffffffffffffff1614611a57576040517f08c379a0000000000000000000000000000000000000000000000000000000008152600401611a4e90614dae565b60405180910390fd5b80600a8190555050565b611a69612f3d565b73ffffffffffffffffffffffffffffffffffffffff16611a876121cc565b73ffffffffffffffffffffffffffffffffffffffff1614611add576040517f08c379a0000000000000000000000000000000000000000000000000000000008152600401611ad490614dae565b60405180910390fd5b611ae5613628565b565b611b0283838360405180602001604052806000815250612592565b505050565b600f60009054906101000a900473ffffffffffffffffffffffffffffffffffffffff1681565b611b35612f3d565b73ffffffffffffffffffffffffffffffffffffffff16611b536121cc565b73ffffffffffffffffffffffffffffffffffffffff1614611ba9576040517f08c379a0000000000000000000000000000000000000000000000000000000008152600401611ba090614dae565b60405180910390fd5b80600760006101000a81548173ffffffffffffffffffffffffffffffffffffffff021916908373ffffffffffffffffffffffffffffffffffffffff16021790555050565b611bf5612f3d565b73ffffffffffffffffffffffffffffffffffffffff16611c136121cc565b73ffffffffffffffffffffffffffffffffffffffff1614611c69576040517f08c379a0000000000000000000000000000000000000000000000000000000008152600401611c6090614dae565b60405180910390fd5b601860009054906101000a900460ff1615601860006101000a81548160ff021916908315150217905550565b60006002805490508210611cde576040517f08c379a0000000000000000000000000000000000000000000000000000000008152600401611cd590614e4e565b60405180910390fd5b819050919050565b60115481565b611cf4612f3d565b73ffffffffffffffffffffffffffffffffffffffff16611d126121cc565b73ffffffffffffffffffffffffffffffffffffffff1614611d68576040517f08c379a0000000000000000000000000000000000000000000000000000000008152600401611d5f90614dae565b60405180910390fd5b8060069080519060200190611d7e929190613e09565b5050565b6000600560149054906101000a900460ff16905090565b60008060028381548110611db057611daf61531d565b5b9060005260206000200160009054906101000a900473ffffffffffffffffffffffffffffffffffffffff169050600073ffffffffffffffffffffffffffffffffffffffff168173ffffffffffffffffffffffffffffffffffffffff161415611e4d576040517f08c379a0000000000000000000000000000000000000000000000000000000008152600401611e4490614d0e565b60405180910390fd5b80915050919050565b60068054611e639061518f565b80601f0160208091040260200160405190810160405280929190818152602001828054611e8f9061518f565b8015611edc5780601f10611eb157610100808354040283529160200191611edc565b820191906000526020600020905b815481529060010190602001808311611ebf57829003601f168201915b505050505081565b611eec612f3d565b73ffffffffffffffffffffffffffffffffffffffff16611f0a6121cc565b73ffffffffffffffffffffffffffffffffffffffff1614611f60576040517f08c379a0000000000000000000000000000000000000000000000000000000008152600401611f5790614dae565b60405180910390fd5b8060088190555050565b60008073ffffffffffffffffffffffffffffffffffffffff168273ffffffffffffffffffffffffffffffffffffffff161415611fdb576040517f08c379a0000000000000000000000000000000000000000000000000000000008152600401611fd290614cce565b60405180910390fd5b6000805b60028054905081101561207c576002818154811061200057611fff61531d565b5b9060005260206000200160009054906101000a900473ffffffffffffffffffffffffffffffffffffffff1673ffffffffffffffffffffffffffffffffffffffff168473ffffffffffffffffffffffffffffffffffffffff16141561206b5781612068906151f2565b91505b80612075906151f2565b9050611fdf565b5080915050919050565b61208e612f3d565b73ffffffffffffffffffffffffffffffffffffffff166120ac6121cc565b73ffffffffffffffffffffffffffffffffffffffff1614612102576040517f08c379a00000000000000000000000000000000000000000000000000000000081526004016120f990614dae565b60405180910390fd5b61210c60006136ca565b565b60135481565b61211c612f3d565b73ffffffffffffffffffffffffffffffffffffffff1661213a6121cc565b73ffffffffffffffffffffffffffffffffffffffff1614612190576040517f08c379a000000000000000000000000000000000000000000000000000000000815260040161218790614dae565b60405180910390fd5b612198613790565b565b60145481565b600d60009054906101000a900473ffffffffffffffffffffffffffffffffffffffff1681565b60125481565b6000600560009054906101000a900473ffffffffffffffffffffffffffffffffffffffff16905090565b601060009054906101000a900473ffffffffffffffffffffffffffffffffffffffff1681565b60606001805461222b9061518f565b80601f01602080910402602001604051908101604052809291908181526020018280546122579061518f565b80156122a45780601f10612279576101008083540402835291602001916122a4565b820191906000526020600020905b81548152906001019060200180831161228757829003601f168201915b5050505050905090565b60196020528060005260406000206000915090505481565b6122ce612f3d565b73ffffffffffffffffffffffffffffffffffffffff166122ec6121cc565b73ffffffffffffffffffffffffffffffffffffffff1614612342576040517f08c379a000000000000000000000000000000000000000000000000000000000815260040161233990614dae565b60405180910390fd5b80600b8190555050565b612354612f3d565b73ffffffffffffffffffffffffffffffffffffffff168273ffffffffffffffffffffffffffffffffffffffff1614156123c2576040517f08c379a00000000000000000000000000000000000000000000000000000000081526004016123b990614c2e565b60405180910390fd5b80600460006123cf612f3d565b73ffffffffffffffffffffffffffffffffffffffff1673ffffffffffffffffffffffffffffffffffffffff16815260200190815260200160002060008473ffffffffffffffffffffffffffffffffffffffff1673ffffffffffffffffffffffffffffffffffffffff16815260200190815260200160002060006101000a81548160ff0219169083151502179055508173ffffffffffffffffffffffffffffffffffffffff1661247c612f3d565b73ffffffffffffffffffffffffffffffffffffffff167f17307eab39ab6107e8899845ad3d59bd9653f200f220920489ca2b5937696c31836040516124c19190614ab6565b60405180910390a35050565b6124d5612f3d565b73ffffffffffffffffffffffffffffffffffffffff166124f36121cc565b73ffffffffffffffffffffffffffffffffffffffff1614612549576040517f08c379a000000000000000000000000000000000000000000000000000000000815260040161254090614dae565b60405180910390fd5b84601181905550836012819055508260138190555081601481905550806015819055505050505050565b601860029054906101000a900460ff1681565b60175481565b60165481565b6125a361259d612f3d565b83613209565b6125e2576040517f08c379a00000000000000000000000000000000000000000000000000000000081526004016125d990614e2e565b60405180910390fd5b6125ee84848484613833565b50505050565b6125fc612f3d565b73ffffffffffffffffffffffffffffffffffffffff1661261a6121cc565b73ffffffffffffffffffffffffffffffffffffffff1614612670576040517f08c379a000000000000000000000000000000000000000000000000000000000815260040161266790614dae565b60405180910390fd5b8060168190555050565b612682612f3d565b73ffffffffffffffffffffffffffffffffffffffff166126a06121cc565b73ffffffffffffffffffffffffffffffffffffffff16146126f6576040517f08c379a00000000000000000000000000000000000000000000000000000000081526004016126ed90614dae565b60405180910390fd5b601860019054906101000a900460ff1615601860016101000a81548160ff021916908315150217905550565b606061272d82613027565b61276c576040517f08c379a000000000000000000000000000000000000000000000000000000000815260040161276390614cee565b60405180910390fd5b60066127778361388f565b604051602001612788929190614a2b565b6040516020818303038152906040529050919050565b6127a6612f3d565b73ffffffffffffffffffffffffffffffffffffffff166127c46121cc565b73ffffffffffffffffffffffffffffffffffffffff161461281a576040517f08c379a000000000000000000000000000000000000000000000000000000000815260040161281190614dae565b60405180910390fd5b601860029054906101000a900460ff1615601860026101000a81548160ff021916908315150217905550565b600760009054906101000a900473ffffffffffffffffffffffffffffffffffffffff1681565b601860009054906101000a900460ff166128bb576040517f08c379a00000000000000000000000000000000000000000000000000000000081526004016128b290614b4e565b60405180910390fd5b6128d06128c6612f3d565b6016548484613168565b61290f576040517f08c379a000000000000000000000000000000000000000000000000000000000815260040161290690614dee565b60405180910390fd5b600954836019600061291f612f3d565b73ffffffffffffffffffffffffffffffffffffffff1673ffffffffffffffffffffffffffffffffffffffff168152602001908152602001600020546129649190614fa8565b11156129a5576040517f08c379a000000000000000000000000000000000000000000000000000000000815260040161299c90614e8e565b60405180910390fd5b34600c54846129b4919061502f565b146129f4576040517f08c379a00000000000000000000000000000000000000000000000000000000081526004016129eb90614e6e565b60405180910390fd5b8260196000612a01612f3d565b73ffffffffffffffffffffffffffffffffffffffff1673ffffffffffffffffffffffffffffffffffffffff1681526020019081526020016000206000828254612a4a9190614fa8565b92505081905550600060028054905090506000600190505b848111612a9857612a85612a74612f3d565b8284612a809190614fa8565b6131eb565b8080612a90906151f2565b915050612a62565b5050505050565b60095481565b600080600760009054906101000a900473ffffffffffffffffffffffffffffffffffffffff1690508273ffffffffffffffffffffffffffffffffffffffff168173ffffffffffffffffffffffffffffffffffffffff1663c4552791866040518263ffffffff1660e01b8152600401612b1d9190614a4f565b60206040518083038186803b158015612b3557600080fd5b505afa158015612b49573d6000803e3d6000fd5b505050506040513d601f19601f82011682018060405250810190612b6d9190614326565b73ffffffffffffffffffffffffffffffffffffffff161415612b93576001915050612ba1565b612b9d84846139f0565b9150505b92915050565b612baf612f3d565b73ffffffffffffffffffffffffffffffffffffffff16612bcd6121cc565b73ffffffffffffffffffffffffffffffffffffffff1614612c23576040517f08c379a0000000000000000000000000000000000000000000000000000000008152600401612c1a90614dae565b60405180910390fd5b600073ffffffffffffffffffffffffffffffffffffffff168173ffffffffffffffffffffffffffffffffffffffff161415612c93576040517f08c379a0000000000000000000000000000000000000000000000000000000008152600401612c8a90614bce565b60405180910390fd5b612c9c816136ca565b50565b600c5481565b600b5481565b612cb3612f3d565b73ffffffffffffffffffffffffffffffffffffffff16612cd16121cc565b73ffffffffffffffffffffffffffffffffffffffff1614612d27576040517f08c379a0000000000000000000000000000000000000000000000000000000008152600401612d1e90614dae565b60405180910390fd5b80600c8190555050565b612d39612f3d565b73ffffffffffffffffffffffffffffffffffffffff16612d576121cc565b73ffffffffffffffffffffffffffffffffffffffff1614612dad576040517f08c379a0000000000000000000000000000000000000000000000000000000008152600401612da490614dae565b60405180910390fd5b8060178190555050565b612dbf612f3d565b73ffffffffffffffffffffffffffffffffffffffff16612ddd6121cc565b73ffffffffffffffffffffffffffffffffffffffff1614612e33576040517f08c379a0000000000000000000000000000000000000000000000000000000008152600401612e2a90614dae565b60405180910390fd5b83600d60006101000a81548173ffffffffffffffffffffffffffffffffffffffff021916908373ffffffffffffffffffffffffffffffffffffffff16021790555082600e60006101000a81548173ffffffffffffffffffffffffffffffffffffffff021916908373ffffffffffffffffffffffffffffffffffffffff16021790555081600f60006101000a81548173ffffffffffffffffffffffffffffffffffffffff021916908373ffffffffffffffffffffffffffffffffffffffff16021790555080601060006101000a81548173ffffffffffffffffffffffffffffffffffffffff021916908373ffffffffffffffffffffffffffffffffffffffff16021790555050505050565b600033905090565b60007f80ac58cd000000000000000000000000000000000000000000000000000000007bffffffffffffffffffffffffffffffffffffffffffffffffffffffff1916827bffffffffffffffffffffffffffffffffffffffffffffffffffffffff1916148061301057507f5b5e139f000000000000000000000000000000000000000000000000000000007bffffffffffffffffffffffffffffffffffffffffffffffffffffffff1916827bffffffffffffffffffffffffffffffffffffffffffffffffffffffff1916145b80613020575061301f82613a84565b5b9050919050565b6000600280549050821080156130a85750600073ffffffffffffffffffffffffffffffffffffffff16600283815481106130645761306361531d565b5b9060005260206000200160009054906101000a900473ffffffffffffffffffffffffffffffffffffffff1673ffffffffffffffffffffffffffffffffffffffff1614155b9050919050565b816003600083815260200190815260200160002060006101000a81548173ffffffffffffffffffffffffffffffffffffffff021916908373ffffffffffffffffffffffffffffffffffffffff160217905550808273ffffffffffffffffffffffffffffffffffffffff1661312283611d99565b73ffffffffffffffffffffffffffffffffffffffff167f8c5be1e5ebec7d5bd14f71427d1e84f3dd0314c0f7b2291e5b200ac8c7c3b92560405160405180910390a45050565b6000808560405160200161317c9190614a10565b6040516020818303038152906040528051906020012090506131e0848480806020026020016040519081016040528093929190818152602001838360200280828437600081840152601f19601f820116905080830192505050505050508683613aee565b915050949350505050565b613205828260405180602001604052806000815250613b04565b5050565b600061321482613027565b613253576040517f08c379a000000000000000000000000000000000000000000000000000000000815260040161324a90614c4e565b60405180910390fd5b600061325e83611d99565b90508073ffffffffffffffffffffffffffffffffffffffff168473ffffffffffffffffffffffffffffffffffffffff1614806132cd57508373ffffffffffffffffffffffffffffffffffffffff166132b584610fc9565b73ffffffffffffffffffffffffffffffffffffffff16145b806132de57506132dd8185612aa5565b5b91505092915050565b8273ffffffffffffffffffffffffffffffffffffffff1661330782611d99565b73ffffffffffffffffffffffffffffffffffffffff161461335d576040517f08c379a000000000000000000000000000000000000000000000000000000000815260040161335490614dce565b60405180910390fd5b600073ffffffffffffffffffffffffffffffffffffffff168273ffffffffffffffffffffffffffffffffffffffff1614156133cd576040517f08c379a00000000000000000000000000000000000000000000000000000000081526004016133c490614c0e565b60405180910390fd5b6133d8838383613b5f565b6133e36000826130af565b81600282815481106133f8576133f761531d565b5b9060005260206000200160006101000a81548173ffffffffffffffffffffffffffffffffffffffff021916908373ffffffffffffffffffffffffffffffffffffffff160217905550808273ffffffffffffffffffffffffffffffffffffffff168473ffffffffffffffffffffffffffffffffffffffff167fddf252ad1be2c89b69c2b068fc378daa952ba7f163c4a11628f55a4df523b3ef60405160405180910390a4505050565b600073ffffffffffffffffffffffffffffffffffffffff168273ffffffffffffffffffffffffffffffffffffffff161415613510576040517f08c379a000000000000000000000000000000000000000000000000000000000815260040161350790614d4e565b60405180910390fd5b61351981613027565b15613559576040517f08c379a000000000000000000000000000000000000000000000000000000000815260040161355090614bee565b60405180910390fd5b61356560008383613b5f565b6002829080600181540180825580915050600190039060005260206000200160009091909190916101000a81548173ffffffffffffffffffffffffffffffffffffffff021916908373ffffffffffffffffffffffffffffffffffffffff160217905550808273ffffffffffffffffffffffffffffffffffffffff16600073ffffffffffffffffffffffffffffffffffffffff167fddf252ad1be2c89b69c2b068fc378daa952ba7f163c4a11628f55a4df523b3ef60405160405180910390a45050565b613630611d82565b61366f576040517f08c379a000000000000000000000000000000000000000000000000000000000815260040161366690614b2e565b60405180910390fd5b6000600560146101000a81548160ff0219169083151502179055507f5db9ee0a495bf2e6ff9c91a7834c1ba4fdd244a5e8aa4e537bd38aeae4b073aa6136b3612f3d565b6040516136c09190614a4f565b60405180910390a1565b6000600560009054906101000a900473ffffffffffffffffffffffffffffffffffffffff16905081600560006101000a81548173ffffffffffffffffffffffffffffffffffffffff021916908373ffffffffffffffffffffffffffffffffffffffff1602179055508173ffffffffffffffffffffffffffffffffffffffff168173ffffffffffffffffffffffffffffffffffffffff167f8be0079c531659141344cd1fd0a4f28419497f9722a3daafe3b4186f6b6457e060405160405180910390a35050565b613798611d82565b156137d8576040517f08c379a00000000000000000000000000000000000000000000000000000000081526004016137cf90614c8e565b60405180910390fd5b6001600560146101000a81548160ff0219169083151502179055507f62e78cea01bee320cd4e420270b5ea74000d11b0c9f74754ebdbfc544b05a25861381c612f3d565b6040516138299190614a4f565b60405180910390a1565b61383e8484846132e7565b61384a84848484613bb7565b613889576040517f08c379a000000000000000000000000000000000000000000000000000000000815260040161388090614b8e565b60405180910390fd5b50505050565b606060008214156138d7576040518060400160405280600181526020017f300000000000000000000000000000000000000000000000000000000000000081525090506139eb565b600082905060005b600082146139095780806138f2906151f2565b915050600a826139029190614ffe565b91506138df565b60008167ffffffffffffffff8111156139255761392461534c565b5b6040519080825280601f01601f1916602001820160405280156139575781602001600182028036833780820191505090505b5090505b600085146139e4576001826139709190615089565b9150600a8561397f919061525f565b603061398b9190614fa8565b60f81b8183815181106139a1576139a061531d565b5b60200101907effffffffffffffffffffffffffffffffffffffffffffffffffffffffffffff1916908160001a905350600a856139dd9190614ffe565b945061395b565b8093505050505b919050565b6000600460008473ffffffffffffffffffffffffffffffffffffffff1673ffffffffffffffffffffffffffffffffffffffff16815260200190815260200160002060008373ffffffffffffffffffffffffffffffffffffffff1673ffffffffffffffffffffffffffffffffffffffff16815260200190815260200160002060009054906101000a900460ff16905092915050565b60007f01ffc9a7000000000000000000000000000000000000000000000000000000007bffffffffffffffffffffffffffffffffffffffffffffffffffffffff1916827bffffffffffffffffffffffffffffffffffffffffffffffffffffffff1916149050919050565b6000613afb848484613d4e565b90509392505050565b613b0e83836134a0565b613b1b6000848484613bb7565b613b5a576040517f08c379a0000000000000000000000000000000000000000000000000000000008152600401613b5190614b8e565b60405180910390fd5b505050565b613b6a838383613d65565b613b72611d82565b15613bb2576040517f08c379a0000000000000000000000000000000000000000000000000000000008152600401613ba990614b0e565b60405180910390fd5b505050565b6000613bd88473ffffffffffffffffffffffffffffffffffffffff16613d6a565b15613d41578373ffffffffffffffffffffffffffffffffffffffff1663150b7a02613c01612f3d565b8786866040518563ffffffff1660e01b8152600401613c239493929190614a6a565b602060405180830381600087803b158015613c3d57600080fd5b505af1925050508015613c6e57506040513d601f19601f82011682018060405250810190613c6b91906142f9565b60015b613cf1573d8060008114613c9e576040519150601f19603f3d011682016040523d82523d6000602084013e613ca3565b606091505b50600081511415613ce9576040517f08c379a0000000000000000000000000000000000000000000000000000000008152600401613ce090614b8e565b60405180910390fd5b805181602001fd5b63150b7a0260e01b7bffffffffffffffffffffffffffffffffffffffffffffffffffffffff1916817bffffffffffffffffffffffffffffffffffffffffffffffffffffffff191614915050613d46565b600190505b949350505050565b600082613d5b8584613d7d565b1490509392505050565b505050565b600080823b905060008111915050919050565b60008082905060005b8451811015613de7576000858281518110613da457613da361531d565b5b60200260200101519050808311613dc657613dbf8382613df2565b9250613dd3565b613dd08184613df2565b92505b508080613ddf906151f2565b915050613d86565b508091505092915050565b600082600052816020526040600020905092915050565b828054613e159061518f565b90600052602060002090601f016020900481019282613e375760008555613e7e565b82601f10613e5057805160ff1916838001178555613e7e565b82800160010185558215613e7e579182015b82811115613e7d578251825591602001919060010190613e62565b5b509050613e8b9190613e8f565b5090565b5b80821115613ea8576000816000905550600101613e90565b5090565b6000613ebf613eba84614eee565b614ec9565b905082815260208101848484011115613edb57613eda61538a565b5b613ee684828561514d565b509392505050565b6000613f01613efc84614f1f565b614ec9565b905082815260208101848484011115613f1d57613f1c61538a565b5b613f2884828561514d565b509392505050565b600081359050613f3f81615b54565b92915050565b60008083601f840112613f5b57613f5a615380565b5b8235905067ffffffffffffffff811115613f7857613f7761537b565b5b602083019150836020820283011115613f9457613f93615385565b5b9250929050565b600081359050613faa81615b6b565b92915050565b600081359050613fbf81615b82565b92915050565b600081359050613fd481615b99565b92915050565b600081519050613fe981615b99565b92915050565b600082601f83011261400457614003615380565b5b8135614014848260208601613eac565b91505092915050565b60008151905061402c81615bb0565b92915050565b600082601f83011261404757614046615380565b5b8135614057848260208601613eee565b91505092915050565b60008135905061406f81615bc7565b92915050565b60006020828403121561408b5761408a615394565b5b600061409984828501613f30565b91505092915050565b600080604083850312156140b9576140b8615394565b5b60006140c785828601613f30565b92505060206140d885828601613f30565b9150509250929050565b600080600080608085870312156140fc576140fb615394565b5b600061410a87828801613f30565b945050602061411b87828801613f30565b935050604061412c87828801613f30565b925050606061413d87828801613f30565b91505092959194509250565b60008060006060848603121561416257614161615394565b5b600061417086828701613f30565b935050602061418186828701613f30565b925050604061419286828701614060565b9150509250925092565b600080600080608085870312156141b6576141b5615394565b5b60006141c487828801613f30565b94505060206141d587828801613f30565b93505060406141e687828801614060565b925050606085013567ffffffffffffffff8111156142075761420661538f565b5b61421387828801613fef565b91505092959194509250565b6000806040838503121561423657614235615394565b5b600061424485828601613f30565b925050602061425585828601613f9b565b9150509250929050565b6000806040838503121561427657614275615394565b5b600061428485828601613f30565b925050602061429585828601614060565b9150509250929050565b6000602082840312156142b5576142b4615394565b5b60006142c384828501613fb0565b91505092915050565b6000602082840312156142e2576142e1615394565b5b60006142f084828501613fc5565b91505092915050565b60006020828403121561430f5761430e615394565b5b600061431d84828501613fda565b91505092915050565b60006020828403121561433c5761433b615394565b5b600061434a8482850161401d565b91505092915050565b60006020828403121561436957614368615394565b5b600082013567ffffffffffffffff8111156143875761438661538f565b5b61439384828501614032565b91505092915050565b6000602082840312156143b2576143b1615394565b5b60006143c084828501614060565b91505092915050565b6000806000604084860312156143e2576143e1615394565b5b60006143f086828701614060565b935050602084013567ffffffffffffffff8111156144115761441061538f565b5b61441d86828701613f45565b92509250509250925092565b600080600080600060a0868803121561444557614444615394565b5b600061445388828901614060565b955050602061446488828901614060565b945050604061447588828901614060565b935050606061448688828901614060565b925050608061449788828901614060565b9150509295509295909350565b6144ad816150bd565b82525050565b6144c46144bf826150bd565b61523b565b82525050565b6144d3816150cf565b82525050565b6144e2816150db565b82525050565b60006144f382614f65565b6144fd8185614f7b565b935061450d81856020860161515c565b61451681615399565b840191505092915050565b600061452c82614f70565b6145368185614f8c565b935061454681856020860161515c565b61454f81615399565b840191505092915050565b600061456582614f70565b61456f8185614f9d565b935061457f81856020860161515c565b80840191505092915050565b600081546145988161518f565b6145a28186614f9d565b945060018216600081146145bd57600181146145ce57614601565b60ff19831686528186019350614601565b6145d785614f50565b60005b838110156145f9578154818901526001820191506020810190506145da565b838801955050505b50505092915050565b6000614617602483614f8c565b9150614622826153b7565b604082019050919050565b600061463a601483614f8c565b915061464582615406565b602082019050919050565b600061465d601c83614f8c565b91506146688261542f565b602082019050919050565b6000614680602b83614f8c565b915061468b82615458565b604082019050919050565b60006146a3603283614f8c565b91506146ae826154a7565b604082019050919050565b60006146c6601b83614f8c565b91506146d1826154f6565b602082019050919050565b60006146e9602683614f8c565b91506146f48261551f565b604082019050919050565b600061470c601c83614f8c565b91506147178261556e565b602082019050919050565b600061472f602483614f8c565b915061473a82615597565b604082019050919050565b6000614752601983614f8c565b915061475d826155e6565b602082019050919050565b6000614775602c83614f8c565b91506147808261560f565b604082019050919050565b6000614798602283614f8c565b91506147a38261565e565b604082019050919050565b60006147bb601083614f8c565b91506147c6826156ad565b602082019050919050565b60006147de603883614f8c565b91506147e9826156d6565b604082019050919050565b6000614801602a83614f8c565b915061480c82615725565b604082019050919050565b6000614824602483614f8c565b915061482f82615774565b604082019050919050565b6000614847602983614f8c565b9150614852826157c3565b604082019050919050565b600061486a602b83614f8c565b915061487582615812565b604082019050919050565b600061488d602083614f8c565b915061489882615861565b602082019050919050565b60006148b0602383614f8c565b91506148bb8261588a565b604082019050919050565b60006148d3602c83614f8c565b91506148de826158d9565b604082019050919050565b60006148f6602083614f8c565b915061490182615928565b602082019050919050565b6000614919602983614f8c565b915061492482615951565b604082019050919050565b600061493c601c83614f8c565b9150614947826159a0565b602082019050919050565b600061495f602183614f8c565b915061496a826159c9565b604082019050919050565b6000614982603183614f8c565b915061498d82615a18565b604082019050919050565b60006149a5602c83614f8c565b91506149b082615a67565b604082019050919050565b60006149c8602683614f8c565b91506149d382615ab6565b604082019050919050565b60006149eb602d83614f8c565b91506149f682615b05565b604082019050919050565b614a0a81615143565b82525050565b6000614a1c82846144b3565b60148201915081905092915050565b6000614a37828561458b565b9150614a43828461455a565b91508190509392505050565b6000602082019050614a6460008301846144a4565b92915050565b6000608082019050614a7f60008301876144a4565b614a8c60208301866144a4565b614a996040830185614a01565b8181036060830152614aab81846144e8565b905095945050505050565b6000602082019050614acb60008301846144ca565b92915050565b6000602082019050614ae660008301846144d9565b92915050565b60006020820190508181036000830152614b068184614521565b905092915050565b60006020820190508181036000830152614b278161460a565b9050919050565b60006020820190508181036000830152614b478161462d565b9050919050565b60006020820190508181036000830152614b6781614650565b9050919050565b60006020820190508181036000830152614b8781614673565b9050919050565b60006020820190508181036000830152614ba781614696565b9050919050565b60006020820190508181036000830152614bc7816146b9565b9050919050565b60006020820190508181036000830152614be7816146dc565b9050919050565b60006020820190508181036000830152614c07816146ff565b9050919050565b60006020820190508181036000830152614c2781614722565b9050919050565b60006020820190508181036000830152614c4781614745565b9050919050565b60006020820190508181036000830152614c6781614768565b9050919050565b60006020820190508181036000830152614c878161478b565b9050919050565b60006020820190508181036000830152614ca7816147ae565b9050919050565b60006020820190508181036000830152614cc7816147d1565b9050919050565b60006020820190508181036000830152614ce7816147f4565b9050919050565b60006020820190508181036000830152614d0781614817565b9050919050565b60006020820190508181036000830152614d278161483a565b9050919050565b60006020820190508181036000830152614d478161485d565b9050919050565b60006020820190508181036000830152614d6781614880565b9050919050565b60006020820190508181036000830152614d87816148a3565b9050919050565b60006020820190508181036000830152614da7816148c6565b9050919050565b60006020820190508181036000830152614dc7816148e9565b9050919050565b60006020820190508181036000830152614de78161490c565b9050919050565b60006020820190508181036000830152614e078161492f565b9050919050565b60006020820190508181036000830152614e2781614952565b9050919050565b60006020820190508181036000830152614e4781614975565b9050919050565b60006020820190508181036000830152614e6781614998565b9050919050565b60006020820190508181036000830152614e87816149bb565b9050919050565b60006020820190508181036000830152614ea7816149de565b9050919050565b6000602082019050614ec36000830184614a01565b92915050565b6000614ed3614ee4565b9050614edf82826151c1565b919050565b6000604051905090565b600067ffffffffffffffff821115614f0957614f0861534c565b5b614f1282615399565b9050602081019050919050565b600067ffffffffffffffff821115614f3a57614f3961534c565b5b614f4382615399565b9050602081019050919050565b60008190508160005260206000209050919050565b600081519050919050565b600081519050919050565b600082825260208201905092915050565b600082825260208201905092915050565b600081905092915050565b6000614fb382615143565b9150614fbe83615143565b9250827fffffffffffffffffffffffffffffffffffffffffffffffffffffffffffffffff03821115614ff357614ff2615290565b5b828201905092915050565b600061500982615143565b915061501483615143565b925082615024576150236152bf565b5b828204905092915050565b600061503a82615143565b915061504583615143565b9250817fffffffffffffffffffffffffffffffffffffffffffffffffffffffffffffffff048311821515161561507e5761507d615290565b5b828202905092915050565b600061509482615143565b915061509f83615143565b9250828210156150b2576150b1615290565b5b828203905092915050565b60006150c882615123565b9050919050565b60008115159050919050565b6000819050919050565b60007fffffffff0000000000000000000000000000000000000000000000000000000082169050919050565b600061511c826150bd565b9050919050565b600073ffffffffffffffffffffffffffffffffffffffff82169050919050565b6000819050919050565b82818337600083830152505050565b60005b8381101561517a57808201518184015260208101905061515f565b83811115615189576000848401525b50505050565b600060028204905060018216806151a757607f821691505b602082108114156151bb576151ba6152ee565b5b50919050565b6151ca82615399565b810181811067ffffffffffffffff821117156151e9576151e861534c565b5b80604052505050565b60006151fd82615143565b91507fffffffffffffffffffffffffffffffffffffffffffffffffffffffffffffffff8214156152305761522f615290565b5b600182019050919050565b60006152468261524d565b9050919050565b6000615258826153aa565b9050919050565b600061526a82615143565b915061527583615143565b925082615285576152846152bf565b5b828206905092915050565b7f4e487b7100000000000000000000000000000000000000000000000000000000600052601160045260246000fd5b7f4e487b7100000000000000000000000000000000000000000000000000000000600052601260045260246000fd5b7f4e487b7100000000000000000000000000000000000000000000000000000000600052602260045260246000fd5b7f4e487b7100000000000000000000000000000000000000000000000000000000600052603260045260246000fd5b7f4e487b7100000000000000000000000000000000000000000000000000000000600052604160045260246000fd5b600080fd5b600080fd5b600080fd5b600080fd5b600080fd5b600080fd5b6000601f19601f8301169050919050565b60008160601b9050919050565b7f416c7068615768616c654e46543a2070617573656420746f6b656e207472616e60008201527f7366657200000000000000000000000000000000000000000000000000000000602082015250565b7f5061757361626c653a206e6f7420706175736564000000000000000000000000600082015250565b7f416c7068615768616c654e46543a204e6f7420796574206f70656e2e00000000600082015250565b7f455243373231456e756d657261626c653a206f776e657220696e646578206f7560008201527f74206f6620626f756e6473000000000000000000000000000000000000000000602082015250565b7f4552433732313a207472616e7366657220746f206e6f6e20455243373231526560008201527f63656976657220696d706c656d656e7465720000000000000000000000000000602082015250565b7f416c7068615768616c654e46543a204e6f7420796574206f70656e0000000000600082015250565b7f4f776e61626c653a206e6577206f776e657220697320746865207a65726f206160008201527f6464726573730000000000000000000000000000000000000000000000000000602082015250565b7f4552433732313a20746f6b656e20616c7265616479206d696e74656400000000600082015250565b7f4552433732313a207472616e7366657220746f20746865207a65726f2061646460008201527f7265737300000000000000000000000000000000000000000000000000000000602082015250565b7f4552433732313a20617070726f766520746f2063616c6c657200000000000000600082015250565b7f4552433732313a206f70657261746f7220717565727920666f72206e6f6e657860008201527f697374656e7420746f6b656e0000000000000000000000000000000000000000602082015250565b7f416c7068615768616c654e46543a2045786365656473206d617820737570706c60008201527f792e000000000000000000000000000000000000000000000000000000000000602082015250565b7f5061757361626c653a2070617573656400000000000000000000000000000000600082015250565b7f4552433732313a20617070726f76652063616c6c6572206973206e6f74206f7760008201527f6e6572206e6f7220617070726f76656420666f7220616c6c0000000000000000602082015250565b7f4552433732313a2062616c616e636520717565727920666f7220746865207a6560008201527f726f206164647265737300000000000000000000000000000000000000000000602082015250565b7f416c7068615768616c654e46543a20546f6b656e20646f6573206e6f7420657860008201527f6973742e00000000000000000000000000000000000000000000000000000000602082015250565b7f4552433732313a206f776e657220717565727920666f72206e6f6e657869737460008201527f656e7420746f6b656e0000000000000000000000000000000000000000000000602082015250565b7f416c7068615768616c654e46543a2045786365656473206d617820706572207460008201527f72616e73616374696f6e2e000000000000000000000000000000000000000000602082015250565b7f4552433732313a206d696e7420746f20746865207a65726f2061646472657373600082015250565b7f416c7068615768616c654e46543a206e6f2062616c616e636520617661696c6160008201527f626c650000000000000000000000000000000000000000000000000000000000602082015250565b7f4552433732313a20617070726f76656420717565727920666f72206e6f6e657860008201527f697374656e7420746f6b656e0000000000000000000000000000000000000000602082015250565b7f4f776e61626c653a2063616c6c6572206973206e6f7420746865206f776e6572600082015250565b7f4552433732313a207472616e73666572206f6620746f6b656e2074686174206960008201527f73206e6f74206f776e0000000000000000000000000000000000000000000000602082015250565b7f416c7068615768616c654e46543a20696e76616c69642070726f6f6600000000600082015250565b7f4552433732313a20617070726f76616c20746f2063757272656e74206f776e6560008201527f7200000000000000000000000000000000000000000000000000000000000000602082015250565b7f4552433732313a207472616e736665722063616c6c6572206973206e6f74206f60008201527f776e6572206e6f7220617070726f766564000000000000000000000000000000602082015250565b7f455243373231456e756d657261626c653a20676c6f62616c20696e646578206f60008201527f7574206f6620626f756e64730000000000000000000000000000000000000000602082015250565b7f416c7068615768616c654e46543a20496e76616c69642066756e64732070726f60008201527f76696465642e0000000000000000000000000000000000000000000000000000602082015250565b7f416c7068615768616c654e46543a20457863656564206d61782077686974656c60008201527f69737420616c6c6f77616e636500000000000000000000000000000000000000602082015250565b615b5d816150bd565b8114615b6857600080fd5b50565b615b74816150cf565b8114615b7f57600080fd5b50565b615b8b816150db565b8114615b9657600080fd5b50565b615ba2816150e5565b8114615bad57600080fd5b50565b615bb981615111565b8114615bc457600080fd5b50565b615bd081615143565b8114615bdb57600080fd5b5056fea2646970667358221220a1a457d01115f5bf0e025d1bfe3867131877c9d8e0fe0b0fc22acd01a7e8806964736f6c63430008070033",
  "linkReferences": {},
  "deployedLinkReferences": {}
}